:020000040800F2
:1000000010050020C10100081B150008911400080C
:1000100019150008CD020008E918000800000000CA
:100020000000000000000000000000001F15000894
:10003000CF020008000000001D150008211500086F
:10004000DB010008DB010008DB010008DB01000820
:10005000DB010008DB010008DB010008DB01000810
:10006000DB010008DB010008DB010008DB01000800
:10007000DB010008DB010008DB010008DB010008F0
:10008000DB010008DB010008DB010008DB010008E0
:10009000DB010008DB010008DB010008DB010008D0
:1000A000DB010008DB010008DB010008DB010008C0
:1000B000DB010008DB010008DB010008DB010008B0
:1000C000DB010008DB010008DB010008DB010008A0
:1000D000DB010008DD180008DB010008DB01000877
:1000E000DB010008DB010008DB010008DB01000880
:1000F000DB010008DB010008DB010008DB01000870
:10010000DB010008DB010008DB010008DB0100085F
:10011000DB010008DB010008DB010008D515000841
:10012000DB010008DB010008DB010008DB0100083F
:10013000DB010008DB010008DB010008DB0100082F
:10014000DB010008DB010008DB010008DB0100081F
:10015000DB010008DB010008DB010008DB0100080F
:10016000DB010008DB010008DB010008DB010008FF
:10017000DB010008DB010008DB01000800000000D3
:10018000DB010008DB010008DB010008DB010008DF
:10019000DB010008DB010008DB010008DB010008CF
:1001A000DB010008DB010008DB010008DFF80CD0F0
:1001B00000F07AF8004800475119000810050020A7
:1001C0000648804706480047FEE7FEE7FEE7FEE7F1
:1001D000FEE7FEE7FEE7FEE7FEE7FEE7C5150008DF
:1001E000AD0100082DE9F05F0546002092469B46D0
:1001F00088460646814640241BE02846414647463D
:10020000224600F041F853465A46C01A914110D395
:1002100011461846224600F028F82D1A67EB01080F
:100220004F4622460120002100F01FF817EB00097D
:100230004E41201EA4F10104DFDC484631462A4627
:100240004346BDE8F09FD2B201E000F8012B491E01
:10025000FBD270470022F6E710B513460A46044663
:100260001946FFF7F0FF204610BD202A04DB203A94
:1002700000FA02F1002070479140C2F1200320FAF9
:1002800003F3194390407047202A04DB203A21FAF7
:1002900002F00021704721FA02F3D040C2F120029F
:1002A0009140084319467047064C074D06E0E06848
:1002B00040F0010394E8070098471034AC42F6D3AD
:1002C000FFF778FF1C1A00083C1A0008FEE7704789
:1002D0002DE9F0410446876D00F07EF9064694F85A
:1002E00035000025022806D08020606584F834504F
:1002F0000120BDE8F0812068016821F0160101604D
:100300002068416921F080014161206C08B9A06C2E
:1003100020B12068016821F00801016020680168AF
:1003200021F0010101600BE000F056F9801B052867
:1003300006D92020606504F8345F03206070D8E798
:1003400020680068C007EFD194F85C103F20884017
:10035000B86004F8345F012060700020C9E790F8AD
:100360003510022903D08021416501207047052105
:1003700080F835100068016821F00101016000205B
:10038000704700002DE9F84FDFF8F4A100220124A6
:100390000AF1040B03254FF00F090BF1040E00BF07
:1003A0000B6804FA02F63340B3426FD10F7907F0BD
:1003B0000307012F01D0022F16D187684FEA4208A8
:1003C00005FA08FC27EA0C07D1F80CC00CFA08FC67
:1003D0004CEA070CC0F808C04768B7430E79C6F36B
:1003E000001696403E4346600E79F643B6070AD0A3
:1003F000C7684FEA420C05FA0CF6B7438E6806FA56
:100400000CF63E43C6600E7906F00306022E10D1AC
:10041000D60800EB8608D8F8206057074FEAD76C5B
:1004200009FA0CF7BE430F6907FA0CF73743C8F80F
:10043000207006684FEA420C05FA0CF7BE430F79AC
:1004400007F0030707FA0CF7374307604E68F6001A
:100450001CD54C4E376847F480473760366822F029
:10046000030706F480460096474E07EB060CDCF8BF
:10047000086897073F0F09FA07F826EA0806DFF829
:100480000C81404503D14FF0000841E072E0DFF8F5
:100490000081404502D14FF0010839E0DFF8F480D7
:1004A000404502D14FF0020832E0DFF8EC804045D1
:1004B00002D14FF003082BE0DFF8E080404502D185
:1004C0004FF0040824E0DFF8D880404502D14FF017
:1004D00005081DE0DFF8CC80404502D14FF006084A
:1004E00016E0DFF8C480404502D14FF007080FE066
:1004F000DFF8B880404502D14FF0080808E0DFF887
:10050000B080404502D14FF0090801E04FF00A08E1
:1005100008FA07F848EA0608CCF80888DAF8006014
:100520005746D1F804C09E435FEACC3C00D51E4339
:100530003E60DBF800605F46D1F804C09E435FEA8E
:100540008C3C00D51E433E60DEF800607746D1F853
:1005500004C09E435FEACC2C00D51E433E60084F8A
:100560000C373E68D1F804C09E435FEA8C2C00D55E
:100570001E433E60521C102AFFF412AFBDE8F88FF4
:10058000003C01404438024000300140000002407D
:100590000004024000080240000C0240001002402B
:1005A0000014024000180240001C024000200240DB
:1005B000002402400069084000D0012070474269D1
:1005C00021EA02030A4043EA0241816170470AB10D
:1005D000816170470904FBE70148806870470000AB
:1005E0000C00002002488168027811448160704745
:1005F0000C0000200B4810B5016841F40071016047
:10060000016841F480610160016841F4807101601A
:10061000032000F06FF8002000F006F800F024F846
:10062000002010BD003C024070B50D4D04464FF453
:100630007A712878B1FBF0F00A490968B1FBF0F053
:1006400000F044FB48B9102C07D200222146501E6E
:1006500000F030F800206C6070BD012070BD00001B
:100660000C000020180000200A4808B5016841F479
:1006700080410160006800F4804000900548001F40
:10068000016841F080510160006800F080500090E6
:1006900008BD000044380240002809DB00F01F02BA
:1006A000012191404009800000F1E020C0F80011D4
:1006B00070470000F0B40E4B1B680C46C3F30223D6
:1006C000C3F10705042D00D90425191D072901D2FE
:1006D000002300E0DB1E012606FA05F1491E214039
:1006E00099409E40761E16403143F0BC01F0FDB8A3
:1006F0000CED00E0064900F0070208684FF6FF0322
:10070000184040EA0220034A104308607047000086
:100710000CED00E00000FA052DE9F84317480168E8
:1007200041F0805101600068154F00F080500126B3
:1007300000903E64FFF750FF05464FF47A78114C65
:1007400005E000BFFFF748FF401B40450DD860683B
:10075000C003F7D57E64FFF73FFF0546464607E036
:10076000FFF73AFF401BB04202D90320BDE8F883EF
:1007700060688003F4D50020F8E7000040380240AC
:1007800000000E42007000402DE9F0470E460500C3
:1007900065D0DFF81481D8F80000F7B200F00F0040
:1007A000B04207D288F80070D8F8000000F00F00BF
:1007B000B04254D128683D4C810712D5400703D57B
:1007C000206840F4E05020602878000703D52068B6
:1007D00040F4604020602068A96820F0F0000843E1
:1007E00020602878C0072DD0304968680839012872
:1007F00012D0022813D0032811D0096889070029D4
:100800002DDA216821F0030101432160FFF7E4FEA6
:10081000814641F2883A0EE009688903EFE70968EA
:100820008901ECE7FFF7D8FEA0EB0901514502D999
:100830000320BDE8F0872068696800F00C00B0EB89
:10084000810FEFD1D8F80010404601F00F01B142FE
:1008500007D90770006800F00F00B04201D00120F6
:10086000E7E72878400705D52068E96820F4E050DC
:10087000084320602878000706D52068296920F4FD
:10088000604040EAC100206000F038F82168084A62
:10089000C1F30311515CC84006490860064800686E
:1008A000FFF7C2FE0020C4E7003C024008380240C7
:1008B000041A000818000020100000200448054910
:1008C00000680968044AC1F38221515CC84070473E
:1008D0001800002008380240141A0008044805498E
:1008E00000680968044AC1F34231515CC84070474E
:1008F0001800002008380240141A0008154810B5E6
:10090000006810F00C02144813D01449042A0FD0C8
:10091000082A0ED10F4C241F2268236802F03F02E0
:100920005B0207D52068C0F38810A0FB010106E038
:10093000084610BD2168C1F38811A1FB0001002306
:10094000FFF750FC2168C1F30141491C4900B0FB8D
:10095000F1F010BD083802400024F40040787D0119
:100960002DE9F84F04006ED02078DFF84C93C007D3
:10097000A9F104054AD009F104000168C1F381011D
:10098000012908D00068C0F3810002280AD1D9F8F3
:100990000000400206D52868800337D5606800282B
:1009A000E1D033E06068B0F5803F10D0B0F5A02F03
:1009B000286810D020F480302860286820F4802037
:1009C00028606068A8B1FFF707FE06460DE02868BA
:1009D00040F48030F4E740F480202860F7E700BF5F
:1009E000FFF7FAFD801B642873D828688003F7D5C9
:1009F0000CE0FFF7F1FD064605E000BFFFF7ECFD58
:100A0000801B6428F0D828688003F7D42078DFF8AA
:100A1000AC8280074FF0000A3ED5A748001D016850
:100A200011F00C0F08D00068C0F3810002280BD130
:100A3000D9F80000400207D42868800716D5E0687E
:100A4000012800D112E033E1E068B8B10120C8F814
:100A50000000FFF7C1FD064605E000BFFFF7BCFD43
:100A6000801B0228C0D828688007F7D5286821692C
:100A700020F0F80040EAC10028600DE0C8F800A0AE
:100A8000FFF7AAFD064604E0FFF7A6FD801B02283B
:100A90001FD828688007F7D42078000722D5864F12
:100AA00087486169703771B101210160FFF794FDDA
:100AB000064604E0FFF790FD801B022809D838683D
:100AC0008007F7D50EE0C0F800A0FFF785FD0646C9
:100AD00005E082E0FFF780FD801B02287DD83868A2
:100AE0008007F7D42078400768D5DFF8CCB100271D
:100AF0000BF13C0BDBF80000C0000BD4DBF800105E
:100B000041F08051CBF80010DBF80000012700F025
:100B1000805000906B4E3068C00510D4306840F4AF
:100B200080703060FFF758FD009005E0FFF754FD3E
:100B30000099401A022850D83068C005F6D55E4E9C
:100B4000A0686C3601280FD00528306810D020F03E
:100B500001003060306820F004003060A068B8B157
:100B6000FFF73AFD00900FE0306840F00100F4E735
:100B700040F004003060F7E7FFF72EFD0099411ABE
:100B800041F28830814266D830688007F4D50EE0A3
:100B9000FFF722FD009007E0FFF71EFD0099411AC4
:100BA00041F28830814256D830688007F4D42FB1A2
:100BB000DBF8001021F08051CBF80010A069C8B319
:100BC0003D49091D0968C1F3810102294AD0022863
:100BD000504607D0C8F8600000E03CE0FFF7FCFC9E
:100BE00004463BE04746C8F86000FFF7F5FC0646C0
:100BF00005E000BFFFF7F0FC801B02282BD8286817
:100C00008001F7D4D4E907010843A16A2E4A4908B4
:100C100002EB0141626A41EA8211084394F82C1008
:100C200040EA0161C9F8001001203866FFF7D4FCE2
:100C3000044606E03EE000BFFFF7CEFC001B0228A2
:100C400009D828688001F7D534E000BFFFF7C4FC5D
:100C5000001B022802D90320BDE8F88F2868800114
:100C6000F4D427E00128F7D0D9F80000E26900F4B5
:100C7000800191421CD1226A00F03F01914217D1BC
:100C800047F6C071626A0140B1EB821F10D1A26ABF
:100C90004FF0FF3300F4403103EB5202B1EB024F4F
:100CA00006D194F82C1000F07060B0EB016F01D009
:100CB0000120D1E70020CFE704380240000047427E
:100CC000800E4742007000400000FFFF10B5401E3C
:100CD000B0F1807F01D3012010BD4FF0E0246061AE
:100CE0000F21601700F001FE0020A06107202061A5
:100CF000002010BD7047704770B590F83C20012A65
:100D000032D0012480F83C40022280F83D20036864
:100D10005A689D6822F070060A6832435A60134B85
:100D200002689A4214D0B2F1804F11D0104B9A420F
:100D30000ED0104B9A420BD00F4B9A4208D00F4B5B
:100D40009A4205D00E4B9A4202D00E4B9A4204D1E1
:100D5000496825F080031943916080F83D400021E7
:100D600080F83C10084670BD022070BD00000140B4
:100D70000004004000080040000C00400004014056
:100D8000004001400018004010B5040003D094F862
:100D90003D0010B107E0012010BD002084F83C00A8
:100DA000204600F01FF8022084F83D00211D206835
:100DB00000F016FC012084F8460084F83E0084F818
:100DC0003F0084F8400084F8410084F8420084F831
:100DD000430084F8440084F8450084F83D00002076
:100DE00010BD000008B500680B49884212D10B48BD
:100DF000016841F0200101600068002200F020003D
:100E0000009011463720FFF755FCBDE80840372019
:100E1000FFF742BC08BD000000140040403802400B
:100E200090F83D10012901D001207047022180F87F
:100E30003D100168CA6842F00102CA6000681149A9
:100E4000884214D0B0F1804F11D00F4988420ED0A3
:100E50000E4988420BD00E49884208D00D4988427D
:100E600005D00D49884202D00C49884204D18168DE
:100E700001F00701062903D0016841F0010101607A
:100E800000207047000001400004004000080040BE
:100E9000000C0040000401400040014000180040E8
:100EA000704770B50446006801694FF00005C943FA
:100EB000890715D4C168C943890711D4E91E0161A6
:100EC00001202077206880698007204602D0FFF744
:100ED000E7FF04E000F098F8204600F096F8257748
:100EE00020680169C943490717D4C168C943490744
:100EF00013D46FF00401016102202077206880691B
:100F000010F4407F204602D0FFF7CAFF04E000F053
:100F10007BF8204600F079F8257720680169C943FD
:100F2000090716D4C168C943090712D46FF0080134
:100F30000161042020772068C0698007204602D024
:100F4000FFF7AEFF04E000F05FF8204600F05DF828
:100F5000257720680169C943C90617D4C168C94308
:100F6000C90613D46FF010010161082020772068B2
:100F7000C06910F4407F204602D0FFF791FF04E0E3
:100F800000F042F8204600F040F82577206801691B
:100F9000C943C90708D1C168C943C90704D1891E1B
:100FA0000161204600F032F820680169C943090652
:100FB00009D4C168C943090605D46FF080010161F5
:100FC0002046FFF797FE20680169C943490609D406
:100FD000C168C943490605D46FF04001016120464C
:100FE00000F078F820680169C94389060BD4C1680C
:100FF000C943890607D46FF0200101612046BDE88E
:101000007040FFF778BE70BD704770472DE9F04122
:101010002B496FF00100096808612A4C012700255F
:10102000A07801280FD12648A5703221323800F06F
:101030007BFC2349323991F83120904203D1087862
:10104000AB2800D1E7701E4E2078DFF87C80643E2C
:10105000A8B96068052812D13221304600F064FC3E
:1010600086F83100656031462770322201F1AC000C
:1010700000F0EEF94FF400514046FFF7A0FA0121CD
:101080001248FFF797FA012809D10D49F120307174
:101090006439052201F1AC0000F0DAF925706068CE
:1010A000401C60600A2801D9656025704FF48051AA
:1010B0004046FFF784FA06480068A060BDE8F0816A
:1010C00080000020000000200018024000000240C4
:1010D00024140040704770470168CA6822F040023B
:1010E000CA600168CA6822F08002CA6090F83D10A8
:1010F000232904D05FF0200180F83D1070472221A1
:10110000FAE70000F8B5026804461068D168536930
:1011100010F00F0F4FF0000553D003F0010601F45B
:10112000907737435FD0C20705D0CA0503D5226C3C
:1011300042F001022264420705D5DA0703D0226C8F
:1011400042F002022264820705D5DA0703D0226C3E
:1011500042F004022264020707D501F02002324364
:1011600003D0226C42F008022264226C002A34D0A0
:10117000800604D5880602D5204600F0B5FA20681E
:101180004069216CC0F38010090700D430B32046B9
:1011900000F092FA2068416949061BD5416921F0A7
:1011A00040014161A06BA8B159490165A06BFFF7EF
:1011B000D6F8002811D0A06B016D01B0BDE8F04059
:1011C000084783060FD58B060DD52046BDE8F840AD
:1011D00000F08ABA2046FFF77FFFF8BD2046FFF7F0
:1011E0007BFF2564F8BD266B2023012E53D1C60654
:1011F00051D5CE064FD51068506800905069400612
:101200002BD5A16B086840680004000CEAD0A68DBD
:101210008642E7D9E085C869B0F5807F18D0D068EC
:1012200020F48070D0602068416921F001014161A3
:101230002068416921F04001416184F83E30256316
:101240002068C16821F01001C160A06BFFF740F871
:10125000A08DE18D401A81B219E0A08DE18D401A78
:1012600081B2E08D0028BDD00029BBD0D06820F429
:101270009070D0602068426922F00102426184F8D7
:101280003E3025632068C26822F01002C26020460A
:10129000FFF721FFF8BD05062BD50D0629D594F8DB
:1012A0003D002128F6D1A068B0F5805F01D120690A
:1012B000B0B1206A411C2162216800784860E08C4E
:1012C000401E0004000CE084E4D12068C16821F0D5
:1012D0008001C1602068C16841F04001C160F8BD73
:1012E000206A0088C0F308005060206A801C2062D9
:1012F000E5E74006F3D54806F1D5D168204621F050
:101300004001D16084F83D3000F0C1F8F8BD000024
:10131000A916000870B5040004D094F83D0000251B
:1013200010B106E0012070BD84F83C50204600F06A
:1013300023F8242084F83D002068C16821F400517E
:10134000C160204600F028FA2068016921F490412C
:1013500001612068416921F02A0141612068C1686A
:1013600041F40051C1602564202084F83D0084F8D8
:101370003E00002070BD000010B586B00446142168
:101380006846FEF767FF18492068884229D1174848
:101390000021026842F010020260006800F01000B4
:1013A000059012481438026842F001020260006899
:1013B00000F0010005904FF4C06000900220CDE9DC
:1013C0000101032003900720049069460848FEF7B6
:1013D000D9FF002211462520FFF76CF92520FFF7E1
:1013E0005BF906B010BD0000001001404438024017
:1013F0000000024090F83E30202B0ED159B152B17E
:1014000090F83C30012B08D0012380F83C300023B9
:10141000036300F047BA01207047022070470000C4
:10142000084910B588420CD132227A390548FFF7B5
:10143000E1FF4FF480410448FFF7C1F80349012060
:10144000887010BDC8000020001802400000002075
:1014500090F83D30202B18D1A9B1A2B190F83C30C2
:10146000012B12D001628284C284002101642122F6
:1014700080F83D2080F83C100068C16841F0800190
:10148000C1600020704701207047022070477047FC
:10149000FEE70000F0B587B014216846FEF7DAFEDB
:1014A0001A480024016841F080010160016801F0E0
:1014B00080010591016841F001010160016801F0BE
:1014C00001010591016841F0400101600068104F81
:1014D00000F040004FF4E0460590002231463846C7
:1014E000FFF775F8012502200095CDE90140694616
:1014F0000848FEF747FF0096CDE901546946384693
:101500000394FEF73FFF07B0F0BD00003038024003
:101510000018024000000240FEE7FEE770477047F7
:10152000FFF760B830B593B030216846FEF792FE01
:1015300014210CA8FEF78EFE20480025016841F01A
:1015400080510160006800F0805011901C480168D3
:1015500041F4404101600068022400F440401190D1
:101560000120039010200490009406940820CDE9F7
:101570000750B420CDE9090404200B906846FFF71A
:10158000EFF908B172B6FEE7FFF7C6F808B172B618
:10159000FEE70CA90F2081E831004FF4A0500F9016
:1015A0004FF48050109005210CA8FFF7EDF80028AB
:1015B00001D072B6FEE713B030BD000040380240E3
:1015C000007000400248016841F4700101607047FA
:1015D00088ED00E00148FFF764BC000080000020B7
:1015E000F0B50268254C264D264E274F274B4FF06D
:1015F000804CA04209D0604507D0A84205D0B04237
:1016000003D0B84201D0984204D122F0700E4A684B
:1016100042EA0E02A0421BD0604519D0A84217D062
:10162000B04215D0B84213D0984211D0184DA842FC
:101630000ED0184DA8420BD0174DA84208D0174D18
:10164000A84205D0164DA84202D0164DA84203D19B
:1016500022F44075CA682A434D6922F080022A4369
:1016600002608A68C2620A688262A04201D098421F
:1016700001D10969016301214161F0BD0000014010
:101680000004004000080040000C0040000401403D
:101690000040014000440140004801400018004063
:1016A000001C00400020004010B5806B0021C18567
:1016B000C184FFF711FD10BD0168CA6822F4907261
:1016C000CA6001684A6922F001024A61016B01297E
:1016D00004D10168CA6822F01002CA60202180F893
:1016E0003E1000210163704710B5044690F83E009B
:1016F000222801D0022010BDA1684FF480529142EF
:1017000001D1206920B1A06A91421BD049B10AE001
:101710002168A06A4968C1F308010180A06A801CA1
:1017200008E0216971B12168496801F07F01017009
:10173000A06A401CA062E08D401E0004000CE08501
:1017400003D01CE021684968F1E72068C16821F0F6
:101750002001C1602068C16821F48071C1602068E7
:10176000416921F001014161202084F83E00206B95
:10177000012806D02046FFF753FE002020630020FA
:1017800010BD2068C16821F01001C160A18D204604
:10179000FFF7A1FCF1E7000070B50446006801699D
:1017A000E26821F44051114301612169A068E269B6
:1017B00008436169114308432168CA6849F20C6310
:1017C0009A430243CA6020684169A26921F44071CA
:1017D0001143416131492068884202D03049884232
:1017E00002D1FFF77BF801E0FFF768F8E269002318
:1017F000192164253226B2F5004F626828D0A0FB7B
:101800000101930F9200FEF7EDFC0146B0FBF5F0ED
:101810006FF01802504301EB800006EB0010B0FBA4
:10182000F5F000F0F002B1FBF5F002EB0012B1FBB5
:10183000F5F06FF01803584301EB800006EB001041
:10184000B0FBF5F000F00F0021681044886070BD17
:10185000A0FB010192185B41FEF7C4FC0146B0FBFE
:10186000F5F00201B1FBF5F06FF01803584301EBFE
:10187000800006EBC000B0FBF5F000F0F80002EBD2
:101880004002B1FBF5F0584301EB800006EBC000CD
:10189000B0FBF5F000F00700D6E7000000100140B3
:1018A0000014014081628285C285002101642222E8
:1018B00080F83E2080F83C100168CA6842F48072CB
:1018C000CA6001684A6942F001024A610068C16861
:1018D00041F02001C1600020704700000148FFF77F
:1018E00011BC0000C8000020FEE70907090E00280F
:1018F00004DB00F1E02080F80014704700F00F00D6
:1019000000F1E02080F8141D704702E008C8121FA3
:1019100008C1002AFAD170477047002001E001C1D8
:10192000121F002AFBD1704730B500224318491E10
:1019300003F8012C06E0845C13F8015C521C2C4473
:1019400003F8014C8A42F6DB90F8310030BD00000C
:101950001CB5FEF74FFEFFF7E5FDFFF79BFD0024EA
:10196000254D00942348019428600E20C5E9010408
:101970004EF65F20AC61E8602846FFF705FA08B133
:1019800072B6FEE7009469461B480194FFF7B4F96C
:1019900008B172B6FEE718481849483001604FF4A4
:1019A0001651C0E901140C21C460C0E904418461EE
:1019B000C461FFF7AFFC08B172B6FEE70E493222F0
:1019C000323901F17A00FFF715FD29686FF0010047
:1019D00008610948FFF724FA094841780648643845
:1019E000017001214170102180F82F10F12180F841
:1019F0002E10FEE70014004080000020001001407F
:101A000000000020000000000000000001020304AC
:101A10000607080900000000010203043C1A000840
:101A2000000000201C0000000A190008581A0008D5
:101A30001C000020F40400001A19000800AB00008C
:101A40000000000000000000010000001000000085
:081A5000000000000024F40076
:04000005080001AD41
:00000001FF
